:020000040800F2
:10000000600600206D0100087501000877010008F6
:10001000790100087B0100087D0100080000000054
:100020000000000000000000000000007F01000848
:10003000810100080000000083010008850100081C
:100040008701000887010008870100088701000870
:100050008701000887010008870100088701000860
:100060008701000887010008870100088701000850
:100070008701000887010008870100088701000840
:100080008701000887010008870100088701000830
:100090008701000887010008870100088701000820
:1000A0008701000887010008870100088701000810
:1000B0008701000887010008000000008701000890
:1000C0008701000800000000000000008701000810
:1000D0000000000087010008870100080000000000
:1000E00087010008870100088701000800F002F876
:1000F00000F02CF80AA090E8000C82448344AAF196
:100100000107DA4501D100F021F8AFF2090EBAE893
:100110000F0013F0010F18BFFB1A43F0010318473B
:10012000B8060000C80600000023002400250026B1
:10013000103A28BF78C1FBD8520728BF30C148BF4A
:100140000B6070471FB51FBD10B510BD00F031F832
:100150001146FFF7F7FF00F0B7FA00F04FF803B4CD
:10016000FFF7F2FF03BC00F057F800000948804792
:1001700009480047FEE7FEE7FEE7FEE7FEE7FEE789
:10018000FEE7FEE7FEE7FEE704480549054A064BA1
:100190007047000069060008ED00000860000020BC
:1001A0006006002060020020600200207047704757
:1001B0007047754600F02CF8AE4605006946534678
:1001C00020F00700854618B020B5FFF7DDFFBDE839
:1001D00020404FF000064FF000074FF000084FF0AE
:1001E000000B21F00701AC46ACE8C009ACE8C0093F
:1001F000ACE8C009ACE8C0098D46704710B50446AC
:10020000AFF300802046BDE81040FFF7A8BF000014
:10021000004870470000002001491820ABBEFEE7EF
:1002200026000200704721B1826842F0010282601C
:1002300003E0826822F001028260704710B5044634
:100240001248844208D10121401500F089F90021AB
:10025000601500F085F917E00D48844208D10121AE
:10026000001500F07DF90021201500F079F90BE070
:100270000848844208D10121C80300F071F9002127
:100280004FF4004000F06CF910BD00000024014064
:1002900000280140003C0140014600208A6802F02D
:1002A00004020AB1012000E0002070470146C86C3A
:1002B00080B270470246002013680B400BB101204A
:1002C00000E000207047014600208A6802F0080222
:1002D0000AB1012000E000207047000030B502465E
:1002E0000020002350680F4C20400D790C6844EA30
:1002F00005242043506090680B4C2040D1E9025403
:100300002C434D7944EA450420439060D06A20F4A0
:1003100070000C7C641EE4B2234340EA0350D062B8
:1003200030BD0000FFFEF0FFFDF7F1FFF0B5044621
:100330000D4600200021092D11DDE068A5F10A0617
:1003400006EB4607072606FA07F18843A5F10A06D9
:1003500006EB460603FA06F10843E0600CE020696C
:1003600005EB4507072606FA07F1884305EB450626
:1003700003FA06F108432061072A0FDA606B561E64
:1003800006EB86071F2606FA07F18843561E06EB82
:10039000860605FA06F10843606322E00D2A0FDAAB
:1003A000206BD61F06EB86071F2606FA07F1884347
:1003B000D61F06EB860605FA06F10843206310E017
:1003C000E06AA2F10D0606EB86071F2606FA07F182
:1003D0008843A2F10D0606EB860605FA06F10843EE
:1003E000E062F0BD816841F008018160704721B191
:1003F000826842F4A002826003E0826822F4A002D4
:1004000082607047816841F00401816070472DE986
:10041000F04102460025002600200023002400278A
:1004200091F803C00CF00F0591F803C00CF0100C0C
:10043000BCF1000F03D091F802C04CEA050591F819
:1004400000C0BCF1000F31D0146800202BE04FF049
:10045000010C0CFA00F3B1F800C00CEA03069E424E
:1004600020D183004FF00F0C0CFA03F7BC4305FAC0
:1004700003FC4CEA040491F803C0BCF1280F06D138
:100480004FF0010C0CFA00FCC2F814C00AE091F81D
:1004900003C0BCF1480F05D14FF0010C0CFA00FC71
:1004A000C2F810C0401C0828D1D31460B1F800C0B5
:1004B000BCF1FF0F34DD546800202EE000F1080C81
:1004C0004FF0010808FA0CF3B1F800C00CEA03067B
:1004D0009E4221D183004FF00F0C0CFA03F7BC436E
:1004E00005FA03FC4CEA040491F803C0BCF1280FA0
:1004F00005D100F1080C08FA0CF8C2F8148091F844
:1005000003C0BCF1480F07D100F1080C4FF00108FF
:1005100008FA0CF8C2F81080401C0828CED35460AA
:10052000BDE8F0810161704701460020034A506830
:1005300020F4404008435060704700000010024023
:1005400029B1064A92690243044B9A6104E0034AC6
:1005500092698243014B9A6170470000001002408B
:1005600029B1064AD2680243044BDA6004E0034A28
:10057000D2688243014BDA607047000000100240ED
:1005800010B500F001F810BD0CB5002001900090EE
:100590003348006840F480303149086000BF30487B
:1005A000006800F4003000900198401C0190009811
:1005B00018B90198B0F5A06FF1D12948006800F48E
:1005C000003010B10120009001E000200090009860
:1005D000012843D12348006840F0100021490860F9
:1005E0000846006820F0030008600846006840F0F4
:1005F000020008601A484068194948600846406887
:1006000048600846406840F480604860084640689A
:1006100020F47C1048600846406840F4E8104860C8
:100620000846006840F08070086000BF0C48006811
:1006300000F000700028F9D00948406820F003005D
:10064000074948600846406840F00200486000BF23
:100650000348406800F00C000828F9D10CBD0000E8
:10066000001002400020024010B51348006840F01E
:1006700001001149086008464068104908400E49C9
:100680004860084600680E4908400B490860084663
:10069000006820F4802008600846406820F4FE00CE
:1006A00048604FF41F008860FFF76AFF4FF000605A
:1006B0000449086010BD0000001002400000FFF86F
:1006C000FFFFF6FE08ED00E008B500F019F8002085
:1006D00000900FE0012000F065F80090002400E099
:1006E000641C05488442FBDB0448006880F001007C
:1006F00002490860EEE7000040420F000C0C014088
:1007000000B587B04FF40040FFF70EFF012148020B
:10071000FFF716FF2148FFF791FD0020029001200E
:100720008DF8180000208DF80D008DF80C004FF4A6
:10073000602004900020059002A91848FFF7CEFD24
:1007400001211648FFF76FFD1448FFF74BFE00BF6D
:100750001248FFF7B8FD0028FAD11048FFF752FE03
:1007600000BF0E48FFF798FD0028FAD101210820AC
:10077000FFF7E6FE0120ADF8040010208DF8070019
:1007800002208DF8060001A90548FFF740FE01216F
:100790000348FFF7C7FE07B000BD0000002401407A
:1007A000000C014010B504460023012221460948EF
:1007B000FFF7BCFD01210748FFF719FE00BF02212A
:1007C0000448FFF777FD0028F9D00248FFF76EFDD7
:1007D00010BD000000240140E807000800000020D0
:0807E00060060000280100087A
:040000050800016D81
:00000001FF
