:020000040800F2
:10000000780600208901000891010008930100088A
:100010009501000897010008990100080000000000
:100020000000000000000000000000009B0100082C
:100030009D010008000000009F010008A1010008C8
:10004000A3010008A3010008A3010008A301000800
:10005000A3010008A3010008A3010008A3010008F0
:10006000A3010008A3010008A3010008A3010008E0
:10007000A3010008A3010008A3010008A3010008D0
:10008000A3010008A3010008A3010008A3010008C0
:10009000A3010008A3010008A3010008A3010008B0
:1000A000A3010008A3010008A3010008A3010008A0
:1000B000A3010008A301000800000000A30100083C
:1000C000A30100080000000000000000A3010008D8
:1000D00000000000A3010008A301000800000000C8
:1000E000A3010008A3010008A301000800F002F822
:1000F00000F03AF80AA090E8000C82448344AAF188
:100100000107DA4501D100F02FF8AFF2090EBAE885
:100110000F0013F0010F18BFFB1A43F0010318473B
:100120000C0700002C070000103A24BF78C878C1E3
:10013000FAD8520724BF30C830C144BF04680C60ED
:10014000704700000023002400250026103A28BF35
:1001500078C1FBD8520728BF30C148BF0B60704739
:100160001FB51FBD10B510BD00F031F81146FFF7E7
:10017000F7FF00F0FDFA00F04FF803B4FFF7F2FFCD
:1001800003BC00F057F800000948804709480047C1
:10019000FEE7FEE7FEE7FEE7FEE7FEE7FEE7FEE737
:1001A000FEE7FEE704480549054A064B7047000094
:1001B00065050008ED0000087800002078060020A2
:1001C000780200207802002070477047704775461B
:1001D00000F02CF8AE4605006946534620F00700B3
:1001E000854618B020B5FFF7DDFFBDE820404FF091
:1001F00000064FF000074FF000084FF0000B21F011
:100200000701AC46ACE8C009ACE8C009ACE8C009DD
:10021000ACE8C0098D46704710B50446AFF30080C6
:100220002046BDE81040FFF7A8BF00000048704717
:100230001400002001491820ABBEFEE72600020092
:1002400070472DE9F04102460025002600200023DA
:100250000024002791F803C00CF00F0591F803C0AB
:100260000CF0100CBCF1000F03D091F802C04CEA66
:10027000050591F800C0BCF1000F31D014680020D2
:100280002BE04FF0010C0CFA00F3B1F800C00CEABF
:1002900003069E4220D183004FF00F0C0CFA03F7A7
:1002A000BC4305FA03FC4CEA040491F803C0BCF11A
:1002B000280F06D14FF0010C0CFA00FCC2F814C054
:1002C0000AE091F803C0BCF1480F05D14FF0010CD2
:1002D0000CFA00FCC2F810C0401C0828D1D31460EE
:1002E000B1F800C0BCF1FF0F34DD546800202EE0EF
:1002F00000F1080C4FF0010808FA0CF3B1F800C047
:100300000CEA03069E4221D183004FF00F0C0CFA39
:1003100003F7BC4305FA03FC4CEA040491F803C05C
:10032000BCF1280F05D100F1080C08FA0CF8C2F84E
:10033000148091F803C0BCF1480F07D100F1080CFC
:100340004FF0010808FA0CF8C2F81080401C082889
:10035000CED35460BDE8F0814FF6FF7101800221D9
:1003600081700421C170704729B1064AD2690243E5
:10037000044BDA6104E0034AD2698243014BDA613B
:10038000704700000010024029B1064A92690243FA
:10039000044B9A6104E0034A92698243014B9A61DB
:1003A000704700000010024030B5002100220024F8
:1003B00000232D4D6D6805F00C0121B1042905D0F5
:1003C000082923D105E0294D056022E0274D05606D
:1003D0001FE0254D6D6805F47012234D6D6805F41E
:1003E0008034022505EB92421CB9214D554305602E
:1003F0000BE01D4D6D6805F400351DB11C4D5543D6
:10040000056002E0194D5543056002E0174D056097
:1004100000BF00BF144D6D6805F0F0010909154DCE
:100420006B5C0568DD4045600F4D6D6805F4E0616B
:10043000090A104D6B5C4568DD4085600A4D6D68AA
:1004400005F46051C90A0B4D6B5C4568DD40C56021
:10045000054D6D6805F44041890B074D6B5CC5681F
:10046000B5FBF3F5056130BD0010024000127A00C3
:1004700000093D00000000201000002010B500F031
:1004800001F810BD0CB500200190009033480068C1
:1004900040F480303149086000BF3048006800F403
:1004A000003000900198401C0190009818B9019804
:1004B000B0F5A06FF1D12948006800F4003010B108
:1004C0000120009001E0002000900098012843D115
:1004D0002348006840F01000214908600846006881
:1004E00020F0030008600846006840F00200086041
:1004F0001A484068194948600846406848600846FC
:10050000406840F4806048600846406820F47C10F1
:1005100048600846406840F4E810486008460068B3
:1005200040F08070086000BF0C48006800F0007068
:100530000028F9D00948406820F0030007494860C6
:100540000846406840F00200486000BF0348406829
:1005500000F00C000828F9D10CBD0000001002408A
:100560000020024010B51348006840F00100114916
:10057000086008464068104908400E49486008462F
:1005800000680E4908400B4908600846006820F4DE
:10059000802008600846406820F4FE0048604FF460
:1005A0001F008860FFF76AFF4FF000600449086091
:1005B00010BD0000001002400000FFF8FFFFF6FE33
:1005C00008ED00E021B1028842F00102028004E05F
:1005D00002884FF6FE731A400280704770B50024FF
:1005E00000220023058C4FF6FE7635400584028CF0
:1005F0008388048B4FF68F752C40B51E2C400D88D8
:100600002C43751E2A400D892A434D882A43144DD8
:10061000A8420BD0134DA84208D0134DA84205D0D4
:10062000124DA84202D0124DA84213D14FF6F775D1
:100630002A404D892A434FF6FB752A408D882A436C
:100640004FF6FF652B404FF6FF552B408D892B430E
:10065000CD892B4383800483CD888586028470BD39
:10066000002C0140003401400040014000440140A2
:10067000004801400A460021018B4FF6F7731940EC
:100680001143018370470021018041808180C18036
:10069000018141818181C18170470000002202886F
:1006A0001D4B98420ED01D4B98420BD0B0F1804F9D
:1006B00008D01B4B984205D01A4B984202D01A4BD7
:1006C000984204D14FF68F731A404B881A43174B48
:1006D000984207D0164B984204D04FF6FF431A4079
:1006E000CB881A4302808B8883850B8803850A4B4D
:1006F00098420BD0094B984208D00E4B984205D037
:100700000D4B984202D00D4B984201D10B7A0386D3
:100710000123838270470000002C01400034014017
:100720000004004000080040000C004000100040A1
:1007300000140040004001400044014000480140D6
:100740004FF6FF71818000210180C18041800172DC
:10075000704700B585B06846FFF726FE02990098FD
:10076000884202D1029805B000BD02984000FAE725
:1007700000F008F805E0002400E0641CB4F5803FB8
:10078000FBDBF8E700B589B001210420FFF7FCFD91
:1007900008A8FFF7E1FD0120ADF8200018208DF832
:1007A000230002208DF8220008A91F48FFF749FD09
:1007B00001210846FFF7D8FD05A8FFF7C1FFFFF7A5
:1007C000C8FF6421B0FBF1F080B2ADF814004FF423
:1007D0007A70ADF818000020ADF81A00ADF81600D8
:1007E00005A94FF08040FFF759FF01A8FFF74BFF25
:1007F0004FF4FA70ADF80A006020ADF80400012053
:10080000ADF806000020ADF80C0001A94FF08040C3
:10081000FFF7E4FE0821C806FFF72CFF0121880737
:10082000FFF7D0FE09B000BD000801404C080008E9
:1008300000000020140000002801000860080008E3
:1008400014000020640600004401000800000000BD
:100850000102030401020304060708090204060852
:040000050800018965
:00000001FF
