:020000040800F2
:1000000010040020010100081F0A000899090008D7
:100010001D0A00086D010008D90A00080000000050
:10002000000000000000000000000000430A00087B
:100030006F01000800000000410A0008450A00089E
:100040001B0100081B0100081B0100081B01000820
:100050001B0100081B0100081B0100081B01000810
:100060001B0100081B0100081B0100081B01000800
:100070001B0100081B0100081B0100081B010008F0
:100080001B0100081B0100081B0100081B010008E0
:100090001B0100081B0100081B0100081B010008D0
:1000A0001B0100081B0100081B0100081B010008C0
:1000B0001B0100081B010008000000001B010008D4
:1000C0001B01000800000000000000001B010008E8
:1000D000000000001B0100081B01000800000000D8
:1000E0001B0100081B0100081B010008DFF80CD0F1
:1000F00000F02AF800480047F90A00081004002020
:100100000648804706480047FEE7FEE7FEE7FEE7B1
:10011000FEE7FEE7FEE7FEE7FEE7FEE7910A0008DE
:10012000ED000008D2B201E000F8012B491EFBD21D
:1001300070470022F6E710B513460A4604461946F2
:10014000FFF7F0FF204610BD064C074D06E0E068C3
:1001500040F0010394E8070098471034AC42F6D30E
:10016000FFF7C8FF740B0008940B0008FEE7704708
:1001700070B5044600F0FAF80546601C02D0044849
:100180000078044400F0F2F8401BA042FAD370BD9E
:10019000000000202DE9F84FDFF894A100220AF1B9
:1001A000040B14464FF0010C4FF00F090BF1040E35
:1001B0000B680CFA04F52B40AB4271D15D4E4F68D1
:1001C000A7EB0608B7422BD00DDC032F34D005DC9B
:1001D00037B3012F19D0022F2FD11BE0112F16D0CA
:1001E000122F2AD119E0B8F5881F19D006DCB8F50E
:1001F000803F15D0B8F5801F1FD111E0B8F5001F62
:100200000ED0B8F5041F18D10AE0CA6815E0CA6814
:10021000121D12E0CA6808320FE0CA680C320CE006
:100220008A682AB1012A4FF0080203D0456104E030
:10023000042202E0056100E00022FF2B01D80746FE
:1002400001E000F104074FEA840601D9A6F1200677
:100250003D6809FA06F825EA080502FA06F645EAB5
:1002600006053D604D68ED005CD5334DAE6946F046
:100270000106AE61AD6924F0030605F001050095A5
:100280002E4D7719BD68A607360F09FA06F825EA3C
:100290000805DFF8AC80404503D14FF0000810E0BE
:1002A00040E0DFF8A080404502D14FF0010808E0AF
:1002B000DFF89480404502D14FF0020801E04FF092
:1002C000030808FA06F848EA0508C7F808804D68E8
:1002D000ED0305D5DAF800501D43CAF8005004E0DC
:1002E000DAF800609E43CAF800604D68DBF80060F1
:1002F000AD035D4601D51E4300E09E432E604D6870
:10030000DEF80060ED02754601D51E4300E09E4315
:100310002E604D68AD020D4D2E6801D51E4300E0E4
:100320009E432E60641C102CFFF442AFBDE8F88F92
:1003300000040140000011100010024000000140C4
:1003400000080140000C0140001001400C04014075
:100350008068084000D001207047C2684A40C260EF
:1003600070470AB1016170470904FBE701488068E2
:1003700070470000000000200248816802781144A4
:100380008160704700000020074810B5016841F007
:1003900010010160032000F067F8002000F006F86B
:1003A00000F024F8002010BD0020024070B50D4D73
:1003B00004464FF47A712878B1FBF0F00A490968D5
:1003C000B1FBF0F000F0D4FA48B9102C07D20022AB
:1003D0002146501E00F028F800206C6070BD0120FE
:1003E00070BD0000000000200C0000200C4808B583
:1003F000816941F001018161816901F00101009190
:10040000C16941F08051C161C06900F08050009025
:100410000448416821F0E06141F08061416008BD1D
:100420000010024000000140F0B40E4B1B680C4667
:10043000C3F30223C3F10705042D00D90425191DB8
:10044000072901D2002300E0DB1E012606FA05F190
:10045000491E214099409E40761E16403143F0BC13
:1004600000F0DEBA0CED00E0064900F00702086873
:100470004FF6FF03184040EA0220034A1043086089
:10048000704700000CED00E00000FA052DE9F04790
:10049000DFF8548105460E46D8F8000000F007004A
:1004A000B0420CD2D8F8001021F007013143C8F84F
:1004B0000010D8F8000000F00700B0426FD12868A3
:1004C0004A4C810712D5400703D5606840F4E060CC
:1004D00060602878000703D5606840F46050606071
:1004E0006068A96820F0F000084360602878C007C1
:1004F00044D06868012816D02168022816D08907E0
:1005000000294CDA616821F0030101436160FFF7C3
:100510002DFF6968074641F2883001290ED0022973
:10052000814618D026E021688903E9E78901E7E7D9
:10053000FFF71CFFC11B494501D918E081466068DF
:10054000C0F381000128F3D118E000BFFFF70EFFD0
:10055000C11B49450BD86068C0F381000228F5D162
:100560000CE000BFFFF702FFC11B494502D9032081
:10057000BDE8F087606810F00C0FF3D1D8F80010D8
:10058000404601F00701B1420BD9016821F0070193
:1005900031430160006800F00700B04201D0012043
:1005A000E6E72878400705D56068E96820F4E06050
:1005B000084360602878000706D56068296920F440
:1005C000605040EAC100606000F016F86168084AB7
:1005D000C1F30311515CC840064908600020FFF7D1
:1005E000E5FE0020C4E700000020024000100240A9
:1005F000640B00080C00002013A185B00FC98DE822
:100600000F0015A0154A00680490516801F00C0015
:10061000042804D0082804D0114805B070471148B8
:10062000FBE7C1F38343C9031DF8030009D55168F3
:1006300004AAC1F34041515C0A4A5043B0FBF1F0B7
:10064000EBE709494843E8E7020304050607080900
:100650000A0B0C0D0E0F10100102000000100240DA
:1006600000127A000024F40000093D002DE9F84F43
:1006700004460078B94DC00748D06868C0F38100CF
:10068000012807D06868C0F38100022809D1686892
:10069000C00306D52868800338D5606800286FD06D
:1006A00034E06068B0F5803F0BD010B1B0F5A02FFA
:1006B00011D0286820F480302860286820F4802039
:1006C00002E0286840F480302860606888B1FFF755
:1006D0004DFE064609E0286840F480202860F0E7D7
:1006E000FFF744FE801B642875D828688003F7D57F
:1006F0000CE0FFF73BFE064605E000BFFFF736FEC5
:10070000801B6428F0D828688003F7D42078944EA2
:1007100080074FF001094FF000083BD5686810F0E2
:100720000C0F07D06868C0F38100022809D16868FF
:10073000C00306D42868800714D5206901281FD17A
:1007400010E02069B0B1C6F80090FFF70FFE074631
:1007500005E000BFFFF70AFEC01B0228C4D82868C6
:100760008007F7D52868616920F0F80040EAC100E9
:1007700028600FE0C6F80080FFF7F8FD074606E0A6
:10078000E9E000BFFFF7F2FDC01B022823D828686C
:100790008007F7D4207800072CD57248A169D9B119
:1007A000C0F80090FFF7E2FD074604E0FFF7DEFD2A
:1007B000C01B02280FD8686A8007F7D56A484FF433
:1007C000FA510068B0FBF1F0009000BF0098411EA4
:1007D0000091FAD20EE080E0C0F80080FFF7C6FD7D
:1007E000074604E0FFF7C2FDC01B022875D8686AFF
:1007F0008007F7D42078400760D5E8690027C0005B
:1008000008D4E86940F08050E861E869012700F009
:100810008050009055480168C90513D4016883468B
:1008200041F480710160FFF7A1FD824606E000BF40
:10083000FFF79CFDA0EB0A0064284ED8DBF800000F
:10084000C005F5D5E06801280AD008B1052813D005
:10085000286A20F001002862286A20F0040002E0E3
:10086000286A40F001002862E06841F2883B98B1B4
:10087000FFF77CFD82460BE0286A40F00400286206
:10088000EEE700BFFFF772FDA0EB0A0159455AD809
:10089000286A8007F6D50CE0FFF768FD824605E080
:1008A000FFF764FDA0EB0A0159454CD8286A800780
:1008B000F6D41FB1E86920F08050E861E06988B3A0
:1008C0006968C1F38101022945D00228C6F8608019
:1008D00004D0FFF74BFD044638E034E0FFF746FD57
:1008E000074604E0FFF742FDC01B02282BD828680A
:1008F0008001F7D4206AB0F5803F05D16868A1680F
:1009000020F4003008436860D4E9080108436968AE
:1009100021F4741108436860C6F86090FFF726FD63
:10092000044606E015E000BFFFF720FD001B02288B
:1009300009D828688001F7D50BE000BFFFF716FD46
:10094000001B022802D90320BDE8F88F2868800127
:10095000F4D40020F8E70120F6E700000010024080
:1009600000004242800442420C000020007000401F
:1009700010B5401EB0F1807F01D3012010BD4FF0B3
:10098000E02460610F21601700F04AF80020A061A8
:1009900007202061002010BDFEE7000070B586B082
:1009A00000241B480094019402940394816941F04F
:1009B00020018161816901F020010491816941F088
:1009C00004018161816901F004010491816941F0B0
:1009D0000801816180690F4E00F008000490002238
:1009E0001F213046FFF7BDFC1F20009001AA012007
:1009F000022582E8310069463046FFF7CBFB0F2025
:100A00008DE8310069460448FFF7C4FB06B070BDAD
:100A10000010024000080140000C0140FEE7704752
:100A20000907090E002806DA00F00F0000F1E020A7
:100A300080F8141D704700F1E02080F80014704722
:100A400070477047FFF798BC30B58FB028216846D3
:100A5000FFF76FFB14210AA8FFF76BFB01210804C5
:100A600000240491CDE90010CDE908040294022588
:100A700007956846FFF7FAFD0F200A90CDE90B5461
:100A80000D9401210AA80E94FFF700FD0FB030BDB0
:100A90000D48016841F00101016041680B4A1140B5
:100AA000416001680A4A11400160016821F4802117
:100AB0000160416821F4FE0141604FF41F01816033
:100AC0000449C00308607047001002400000FFF8AE
:100AD000FFFFF6FE08ED00E0FEE702E008C8121F87
:100AE00008C1002AFAD170477047002001E001C117
:100AF000121F002AFBD17047FFF746FCFFF7A4FF47
:100B0000FFF74CFF154D012202212846FFF729FC73
:100B1000134C02212046FFF71BFC08B1012200E024
:100B2000002206212846FFF71CFC01212046FFF782
:100B30000FFC08B1012200E0002201212846FFF746
:100B400010FC04212046FFF703FC18B118212846A9
:100B5000FFF703FC6420FFF70BFBDAE70008014016
:100B6000000C01400000000000000000010203042E
:100B700006070809940B0008000000201000000080
:100B8000DA0A0008A40B000810000020000400008E
:100B9000EA0A000801000000100000000000000048
:040BA00000A24A0461
:04000005080000ED02
:00000001FF
